:020000040800F2
:20C00000006000203D26010805FA00080DFA000815FA00081DFA000825FA000800000000C1
:20C020000000000000000000000000002DFA000839FA00080000000045FA000851FA0008FC
:20C04000852601088526010885260108852601088526010885260108852601088526010840
:20C060008526010885260108852601088526010885260108852601085DFA00088526010875
:20C080008526010885260108852601088526010871FA000885FA000885260108852601086E
:20C0A0008526010885260108852601088526010885260108852601088526010885260108E0
:20C0C0008526010885260108852601088526010885260108852601088526010885260108C0
:20C0E0008526010885260108852601088526010885260108852601088526010885260108A0
:20C1000085260108852601088526010885260108852601088526010885260108852601087F
:20C1200085260108852601088526010885260108000000000000000000000000000000002F
:20C140000000000000000000000000000000000000000000000000000000000000000000DF
:20C160000000000000000000000000000000000000000000000000000000000000000000BF
:20C1800000000000000000000000000000000000000000000000000000000000000000009F
:20C1A00000000000000000000000000000000000000000000000000000000000000000007F
:20C1C00000000000000000000000000000000000000000000000000000000000000000005F
:20C1E0005FF8E0F110B5054C237833B9044B13B10448AFF300800123237010BDC020002075
:20C20000000000000C34010808B5034B1BB103490348AFF3008008BD00000000C42000207C
:20C220000C340108034613F8012B002AFBD1181A01387047002310B50446C0E90033C0E966
:20C240000433836081814366C2818361194608225C3000F0F4F80D4B246263620C4BA36202
:20C260000C4BE3620C4B23630C4B9C4206D003F16802944202D0D0339C4205D104F1580030
:20C28000BDE8104000F04EB910BD00BFB9C30008DBC3000813C4000837C40008DC200020FE
:20C2A000024A0349034800F069B800BF0020002019C800081020002041680C4B10B59942B2
:20C2C000044601D000F0A8FAA168094B994202D0204600F0A1FAE168064B994204D0204607
:20C2E000BDE8104000F098BA10BD00BFDC20002044210020AC21002010B50B4B0B4C0C4A25
:20C3000020461A6004210022FFF794FF04F1680001220921FFF78EFF04F1D0000222BDE8B2
:20C3200010401221FFF786BF14220020DC200020A1C20008014800F0F6B800BF1D2200205D
:20C34000014800F0F1B800BF1D22002010B50446FFF7F0FF236A1BB1BDE81040FFF7F0BFF6
:20C36000044B2362044B1B68002BF5D1FFF7C4FFF2E700BFB9C20008142200202DE9F843AB
:20C380000746884614460026D4E90195B9F1010905D52468002CF7D13046BDE8F883AB89D7
:20C3A000012B07D9B5F90E30013303D029463846C04706436835E9E710B50C46B1F90E10F5
:20C3C00000F068F80028ABBF636DA3891B1823F48053ACBF6365A38110BD2DE9F0411F4692
:20C3E0008B890546DB050C46164605D502230022B1F90E1000F03CF8A389324623F48053B5
:20C40000A38128463B46B4F90E10BDE8F04100F053B810B50C46B1F90E1000F029F8431C1E
:20C42000A38915BF606523F4805343F48053A38118BFA38110BDB1F90E1000F009B8034695
:20C440000244934200D1704703F8011BF9E7000038B50023054D044608462B6006F0BDF812
:20C46000431C02D12B6803B1236038BD1822002038B50446084611460022054D2A601A4637
:20C4800006F0CFF8431C02D12B6803B1236038BD1822002038B50446084611460022054D44
:20C4A0002A601A4606F060F8431C02D12B6803B1236038BD1822002038B50446084611461D
:20C4C0000022054D2A601A4606F06BF8431C02D12B6803B1236038BD1822002070B500260F
:20C4E0000C4D0D4C641BA410A64209D106F08EFF00260A4D0A4C641BA410A64205D170BD21
:20C5000055F8043B98470136EEE755F8043B98470136F2E70C3901080C3901080C3901083F
:20C5200010390108704770477047000038B50546002940D051F8043C0C1F002BB8BFE418C1
:20C5400000F0DEF81C4A136833B9636014602846BDE8384000F0DAB8A34208D9206821187D
:20C560008B4201BF19685B6809182160EDE71A465B680BB1A342FAD911685018A0420BD13E
:20C5800020680144501883421160E0D118685B68084410605360DAE702D90C232B60D6E7BA
:20C5A000206821188B4201BF19685B680918216063605460CBE738BD2422002070B50F4E41
:20C5C0000C463168054611B900F04EF930602146284600F049F9431C03D14FF0FF34204682
:20C5E00070BDC41C24F00304A042F8D0211A284600F03AF90130F2D1EFE700BF20220020B2
:20C600002DE9F843CD1C25F0030508350C2D38BF0C25002D064601DBA94204D90C23336046
:20C620000020BDE8F883DFF8D48000F069F8D8F800301C4644BB29463046FFF7BFFF431CE5
:20C64000044658D1D8F800402746002F43D1002C4BD023683946304604EB030900F004F9F8
:20C66000814542D1216830466D1A2946FFF7A6FF01303AD023682B442360D8F800305A68D7
:20C6800062BBC8F800700FE02268521B20D40B2A17D96119A342256018BF5960636808BF48
:20C6A000C8F8001062514B60304600F02FF804F10B00231D20F00700C21A1CBF1B1AA35089
:20C6C000AFE76268A3420CBFC8F800205A60EBE723466468AEE73C467F68B6E71A465B68EB
:20C6E000A342FBD100235360DEE70C233046336000F00CF894E70560D6E700BF2422002000
:20C700000148FFF710BF00BF1C2200200148FFF70BBF00BF1C220020B1F90C20F8B5160728
:20C7200005460C4654D44B68002B02DC0B6C002B48DDE66A002E45D0002312F480522F688C
:20C74000216A2B6030D0626DA389590705D56368D21A636B0BB1236CD21A00232846E66AF1
:20C76000216AB047431CA38906D129681D292BD8284ACA40D60727D5002262602269D9045A
:20C78000226004D5421C01D12B6803B96065616B2F60B9B104F14403994202D02846FFF7E8
:20C7A000C5FE002363630DE001232846B0470246501CC9D12B68002BC6D01D2B01D0162B5B
:20C7C0001DD12F60002021E043F040031BB21AE00F69002FF6D0930718BF00230E6808BF40
:20C7E0004B69F61B0F608B60002EEBDD33463A462846216AD4F828C0E047002807DCB4F99F
:20C800000C3043F040034FF0FF30A381F8BD0744361AE9E70100402038B50B6905460C4655
:20C8200013B90025284638BD18B1036A0BB9FFF78DFDB4F90C30002BF3D0626ED00704D4D4
:20C84000990502D4A06DFFF76EFE28462146FFF763FF636E0546DA07E4D4A3899B05E1D492
:20C86000A06DFFF761FEDDE738B50023054D044608462B6005F020FE431C02D12B6803B181
:20C88000236038BD1822002080B485B000AF786039600023FB730F23BB6018E0BB687A6862
:20C8A00013441B785BB25B005AB297F90F30134359B2BB683A681344CAB21A70BB687A68C3
:20C8C00013441B78DB09FB73BB68013BBB60BB68002BE3DA00BF00BF1437BD4680BC7047D8
:20C8E00080B487B000AFF860B9607A6000237B6110E07B69FA68134419787B69BA68134459
:20C900001A787B69786803444A40D2B21A707B6901337B617B690F2BEBDD00BF00BF1C3737
:20C92000BD4680BC7047000080B586B000AFF860B9607A607868FFF775FC03469AB24FF67B
:20C94000FF737968154805F0DCFB00237B6115E0FA687B6913441B781A4607F11003104973
:20C96000184605F0FDFE07F110014FF6FF7303220A4805F0C6FB7B6901337B617A69BB6882
:20C980009A42E5D34FF6FF7302220649034805F0B8FB00BF1837BD4680BD00BF542700203E
:20C9A000243401082C34010880B485B000AF786039600023FB6010E0FB687A681344197889
:20C9C000FB683A6813441A78FB68786803444A40D2B21A70FB680133FB60FB680F2BEBDDF0
:20C9E00000BF00BF1437BD4680BC704780B485B000AF78600023FB600DE0FB687A68134481
:20CA00001B781946FB687A681344074A525C1A70FB680133FB60FB680F2BEEDD00BF00BF27
:20CA20001437BD4680BC7047AC34010880B485B000AF78607B685B78FB737B6801337A68BF
:20CA400052791A707B6805337A68527A1A707B6809337A68527B1A707B680D33FA7B1A70B4
:20CA60007B689B78FB737B6802337A68927A1A707B680A33FA7B1A707B689B79FB737B685B
:20CA800006337A68927B1A707B680E33FA7B1A707B68DB78FB737B6803337A68D27B1A704B
:20CAA0007B680F337A68D27A1A707B680B337A68D2791A707B680733FA7B1A7000BF14379B
:20CAC000BD4680BC7047000080B485B000AF78600023FB607AE0FB689B001A467B68134400
:20CAE0001B78FB72FB689B0001337A6813441B78BB72FB689B0002337A6813441B787B721F
:20CB0000FB689B0003337A6813441B783B72FB7A334AD25CBB7A3249C95CBB7A4B40DBB226
:20CB20005340DAB27B7A5340D9B2FB689B001A467B6813443A7A4A40D2B21A70BB7A284A38
:20CB4000D25CFB7A5340DAB27B7A2549C95C7B7A4B40DBB25340D9B2FB689B0001337A684C
:20CB600013443A7A4A40D2B21A70FA7ABB7A5340DAB27B7A1A49CB5C5340D9B23B7A184A96
:20CB8000D25C3B7A5340DAB2FB689B000233786803444A40D2B21A70FB7A114AD25CFB7A2E
:20CBA0005340DAB2BB7A5340DAB27B7A5340D9B23B7A0B4AD25CFB689B000333786803445C
:20CBC0004A40D2B21A70FB680133FB60FB68032B81DD00BF00BF1437BD4680BC704700BF5E
:20CBE000AC35010880B485B000AF786039600023FB7332E0FB7B9B001A467B681A44FB7BF7
:20CC00009B0019463B680B4412781A70FB7B9B0001337A681A44FB7B9B00013339680B445A
:20CC200012781A70FB7B9B0002337A681A44FB7B9B00023339680B4412781A70FB7B9B00FF
:20CC400003337A681A44FB7B9B00033339680B4412781A70FB7B0133FB73FB7B032BC9D9B5
:20CC600087E0FB7B013B9B001A463B6813441B783B72FB7B013B9B0001333A6813441B7859
:20CC80007B72FB7B013B9B0002333A6813441B78BB72FB7B013B9B0003333A6813441B785D
:20CCA000FB72FB7B03F00303DBB2002B1ED13B7ABB737B7A1A46344B9B5C3B72BB7A1A4601
:20CCC000314B9B5C7B72FB7A1A462F4B9B5CBB72BB7B2D4AD35CFB723A7AFB7B9B08DBB2DE
:20CCE000013B2A49CB5C5340DBB23B72FB7B043B9B001A463B68134419783A7AFB7B9B0091
:20CD000018463B6803444A40D2B21A70FB7B043B9B0001333A68134419787A7AFB7B9B0020
:20CD20000133386803444A40D2B21A70FB7B043B9B0002333A6813441978BA7AFB7B9B00EC
:20CD40000233386803444A40D2B21A70FB7B043B9B0003333A6813441978FA7AFB7B9B008A
:20CD60000333386803444A40D2B21A70FB7B0133FB73FB7B2B2B7FF674AF00BF00BF1437B9
:20CD8000BD4680BC704700BFAC340108AC360108B0B5B6B000AFF860B9607A6007F1140336
:20CDA0001946F868FFF71EFFBB6807F1C404186859689A68DB680FC407F1140207F1C40398
:20CDC00011461846FFF7F0FD0123C7F8D43020E007F1C4031846FFF709FE07F1C40318469D
:20CDE000FFF724FE07F1C4031846FFF76DFED7F8D4301B011A4607F114031A4407F1C40322
:20CE000011461846FFF7D0FDD7F8D4300133C7F8D430D7F8D430092BDADD07F1C4031846F5
:20CE2000FFF7E4FD07F1C4031846FFF7FFFD07F11403A03307F1C40219461046FFF7B4FD10
:20CE40007B681D4607F1C4040FCC28606960AA60EB6000BFD837BD46B0BD80B588B000AFF1
:20CE6000F860B9607A6007F1100300221A605A609A60DA6007F1100207F110031946F868FE
:20CE8000FFF786FF07F11003B9681846FFF7FCFC3B7C5BB2002B09DABB680F331B78BA68B3
:20CEA0000F3283F07803DB43DBB213707968B868FFF7EAFCBB681B785BB2002B09DA7B6884
:20CEC0000F331B787A680F3283F07803DB43DBB2137000BF2037BD4680BD80B582B000AFD2
:20CEE000786039607B6810223968184605F060FC00BF0837BD4680BD90B59DB000AFF86085
:20CF0000B9607A603B60FB6807F1440207F154011846FFF7A2FF7B680F331B09FB6607F1FE
:20CF2000340300221A605A609A60DA60FB6E002B01D10123FB667B6803F00F03002B1ED044
:20CF40007B6803F00F037B66FB6E013B1B01BA68D11807F134037A6E184605F029FC07F1B5
:20CF600034027B6E134480221A7007F1340207F1440107F134031846FFF7B2FC14E0FB6E16
:20CF8000013B1B01BA68134407F13404186859689A68DB680FC407F1340207F1540107F1C4
:20CFA00034031846FFF79CFC07F1240300221A605A609A60DA600023BB6615E0BB6E1B0127
:20CFC000BA68D11807F1140207F124031846FFF787FCFB6807F1240207F114011846FFF760
:20CFE000D7FEBB6E0133BB66FB6E013BBA6E9A42E4D307F1140207F1340107F124031846C6
:20D00000FFF76EFCFB6807F114013A681846FFF7BFFE00BF7437BD4690BD000080B58CB062
:20D0200000AF786039603B68002B01D101236DE07A683B681344013B7A689A4201D90123EB
:20D0400064E07A683B681344013B7B627B68B3F1006F0FD37B6AB3F1006F0BD37B682D4A8F
:20D06000934207D87B6A2B4A934203D87A6A7B689A4201D2012349E07B6823F4FF6323F0C0
:20D0800007033B627A6A3B6AD31ADB0A0133FB614FF0FF33BB600023FB6001233B6104F040
:20D0A000FDFD0346002B01D001232FE0002387F82F300023BB621FE00123BB61BB6ADA027D
:20D0C0003B6A13447B6172B600BF07F1080207F10C031146184604F0C9FE034687F82F30F1
:20D0E00062B600BF0C4804F0ADFF97F82F30002B07D1BB6A0133BB62BA6AFB699A42DBD3EC
:20D1000000E000BF04F0F0FD97F82F3018463037BD4680BDFFFF070848270020B0B588B063
:20D1200000AFF860B9601346FB800023FB7704F0B5FD0023BB833EE00023BB61FA88BB8B3A
:20D14000D31A042BA8BF0423BB750023FB7511E0BA8BFB7D13441A46BB6813441B781A4690
:20D16000FB7DDB0002FA03F3BA691343BB61FB7D0133FB75FA7DBB7D9A42E9D3BA8BFB68CA
:20D18000D118BB6900221C46154622462B46022004F014FD0346FB77FB7F002B10D1BB8B1C
:20D1A00003F007039BB2002B02D1094804F04AFFBB8B0433BB83BA8BFB889A42BCD300E0CB
:20D1C00000BF04F091FDFB7F18462037BD46B0BD4827002080B400AF034B4FF6FF721A805F
:20D1E00000BFBD4680BC70475C20002080B485B000AF78600B467B800023FB8130E0FB896F
:20D200007A6813441B781B029AB21B4B1B8853409AB2194B1A800023BB601BE0164B1B88B6
:20D220001BB2002B0DDA144B1B881BB25B001BB283F4815383F001031BB29AB20E4B1A804A
:20D2400005E00D4B1B885B009AB20B4B1A80BB680133BB60BB68072BE0DDFB890133FB819F
:20D26000FA897B889A42CAD3034B1B8818461437BD4680BC704700BF5C20002080B584B05B
:20D2800000AFF860B9601346FB71FB6840F22312934206D1FB791A46B968002000F0C0FE70
:20D2A0000AE0FB6840F2DF72934205D1FB791A46B968012000F0B4FE00BF1037BD4680BDF5
:20D2C00080B584B000AFF860B9601346FB71FB791A46B968F86802F065FA00BF1037BD4651
:20D2E00080BD80B500AF00F0EDF900BF80BD80B500AF00F009FE00F0C9F900BF80BD0000B2
:20D3000080B483B000AF0346FB71FB79012B0ED8FB79002B03D1084B42F211721A60FB7951
:20D32000012B05D1044B41F289325A6000E000BF0C37BD4680BC70472822002080B483B04B
:20D3400000AF0346FB71FB79012B05D8FB79054A002142F8231000E000BF0C37BD4680BC7A
:20D36000704700BF2822002080B483B000AF0346FB71FB79012B01D900231EE0FB79114A98
:20D3800052F82330002B01D1002316E0FB790D4A52F82330012B07D1FB790A4A002142F84B
:20D3A00023104FF0FF3308E0FB79064A52F82320013A044941F82320012318460C37BD46C4
:20D3C00080BC70472822002080B483B000AF0346FB71FB79012B01D9002308E0FB79064ADC
:20D3E00052F82330002B01D0012300E0002318460C37BD4680BC70472822002080B400AF89
:20D4000000BFBD4680BC704780B584B000AF03460A46FB711346BB7107F1080300221A6016
:20D420005A60BB79782B02D00120FFF769FF124B1B78022B0ED1BB79112B18D0BB79122B45
:20D4400015D0BB79312B12D0BB797E2B0FD0BB797F2B0CD07F233B72FB797B72BB79BB72EE
:20D4600007F108030321184600F024FD00E000BF1037BD4680BD00BFD826002080B582B0AC
:20D4800000AF78600B467B800120FFF739FF074B1B78012B05D07B881946786800F00AFD4B
:20D4A00000E000BF0837BD4680BD00BF3022002080B582B000AF0346FB710120FFF73EFFFE
:20D4C00000BF0837BD4680BD80B582B000AF0346FB710120FFF714FF00BF0837BD4680BDDB
:20D4E00080B584B000AF78600B467B8013467B700120FFF723FF7B78002B03D00120FFF76B
:20D50000FFFEB9E07B681B78BB737B6801331B78DB097B730023FB73A5E0FA7B58491346D0
:20D520009B0013449B000B441B78BA7B9A4240F09680544B1B78022B0DD1FA7B5049134681
:20D540009B0013449B000B440F331B78002B02D1FFF754FF90E000F055FE0346012B0AD1D0
:20D56000FA7B474913469B0013449B000B440C331B78002B1FD000F045FE0346022B0AD101
:20D58000FA7B3F4913469B0013449B000B440D331B78002B0FD000F035FE0346032B10D101
:20D5A000FA7B374913469B0013449B000B440E331B78002B05D1BB7B7F211846FFF724FF1F
:20D5C0005AE001F08FF903461846FA7B2C4913469B0013449B000B4411331B78984205D24A
:20D5E000BB7B33211846FFF70FFF45E0FA7B244913469B0013449B000B4408331B687A8843
:20D600001146786898470346002B05D1BB7B13211846FFF7F9FE2FE0FA7B194913469B001B
:20D6200013449B000B4410331B78012B06D17B7B012B03D1144B01221A7002E0124B00226D
:20D640001A70FA7B0E4913469B0013449B000B4404331B687A881146786898470CE000BFC2
:20D66000FB7B0133FB73FB7B0F2B7FF656AFBB7B11211846FFF7C8FE1037BD4680BD00BFA0
:20D68000B8360108D82600203022002080B500AF0120FFF769FE0346002B05DA012000F03D
:20D6A000A1FD002001F00EF90020FFF75DFE0346002B02DA024B00221A7000BF80BD00BF3F
:20D6C000FD26002080B584B000AF3B1D00221A605A609A60074B7B60074BBB60074BFB6000
:20D6E0003B1D184600F03EFD034618461037BD4680BD00BFB1D40008E1D40008C9D400086D
:20D7000080B483B000AF0346FB71FB79022B16D8FB79002B03D10C4B40F2E9321A60FB79AA
:20D72000012B03D1084B40F2E9325A60FB79022B06D1064B1B781A46034B9A6000E000BFEC
:20D740000C37BD4680BC7047342200204022002080B483B000AF03463960FB71FB79022B93
:20D7600012D8FB79002B02D10A4A3B681360FB79012B02D1074A3B685360FB79022B04D153
:20D78000044A3B68936000E000BF0C37BD4680BC704700BF3422002080B483B000AF034639
:20D7A000FB71FB79022B05D8FB79054A002142F8231000E000BF0C37BD4680BC704700BF97
:20D7C0003422002080B483B000AF0346FB71FB79022B01D900231EE0FB79114A52F8233000
:20D7E000002B01D1002316E0FB790D4A52F82330012B07D1FB790A4A002142F823104FF012
:20D80000FF3308E0FB79064A52F82320013A044941F82320012318460C37BD4680BC7047DE
:20D820003422002080B483B000AF0346FB71FB79022B01D9002312E0FB790B4A52F82330B1
:20D84000002B06D0FB79084A002142F82310012305E0FB79044A002142F823100023184699
:20D860000C37BD4680BC70473422002080B582B000AF134B00221A70124B00221A70124B73
:20D8800000221A70114B00221A70114B00221A70104B00221A70104B00221A700023FB712F
:20D8A00006E0FB791846FFF777FFFB790133FB71FB79022BF5D900BF00BF0837BD4680BDC4
:20D8C0003122002032220020332200204222002043220020442200204522002080B584B06D
:20D8E00000AF78600B46FB707B681B7803F00F03BB81BB89072B02D8BB89002B02D14FF05D
:20D90000FF3319E00023FB810BE0FB8901331A467B681A44FB891178094AD154FB890133BC
:20D92000FB81FA89BB899A42EFD3064B5B68B989002203489847002318461037BD4680BD5C
:20D94000CC260020DC26002080B584B000AF78600B46FB707B681B781B029BB203F470633D
:20D96000BB817B6801331B781A46BB891343BB81BB89072B02D84FF0FF333AE0BB89B3F5C4
:20D98000806F05D9022000F03DF96FF0010330E01A4ABB8913800023FB810BE0FB89023381
:20D9A0001A467B681A44FB891178154AD154FB890133FB81FA89FB78023B9A42EEDBFB78B6
:20D9C0009BB2023B9AB20F4B1A80002000F01AF90D4B00221A700D4B01221A700020FFF73B
:20D9E0008FFE0B4B00221A700A4B1B6800209847002318461037BD4680BD00BFD4260020E0
:20DA0000CC220020D6260020442200203222002045220020DC26002080B584B000AF786049
:20DA20000B46FB707B681B7803F00F037B730020FFF7F8FE0346002B02DC4FF0FF3358E0BA
:20DA40002E4B1B780133DAB22C4B1A702B4B1B780F2B02D9294B00221A70284B1B787A7BC0
:20DA60009A4209D0264B5B68264A11880322264898476FF001033CE00023FB8117E0214BC1
:20DA80001B881A46FB891344B3F5806F0CDAFB8901331A467B681A441A4B1B881946FB89E7
:20DAA0000B441178184AD154FB890133FB81FB89062BE4D9134B1B8807339AB2114B1A80E4
:20DAC000104B1A88114B1B889A420BD3104B00221A700B4B5B680D4A118800220A4898472D
:20DAE000002306E00A4B01221A700020FFF708FE012318461037BD4680BD00BF45220020B0
:20DB0000DC260020D6260020CC220020D42600203222002080B584B000AF78600B46FB707F
:20DB20007B681B7803F00F03FB730120FFF77AFE0346002B02DC4FF0FF3353E02B4B1B786E
:20DB4000022B02D14FF0FF334CE0294B00221A70FB7B022B06D9274B9B68042098476FF0AF
:20DB600001033FE0FB7B022B06D1224B9B68062098476FF0020335E0FB7B012B07D11C4B39
:20DB800001221A700120FFF7BBFD01232AE07B685A78194B1A707B6802331B785BB2002B55
:20DBA00007DB7B6802331B780133DAB2134B1A7010E07B6802331B78EF2B08D97B68023382
:20DBC0001B78F92B03D80D4B02221A7002E00B4B80221A700A4B00221A7001210220FFF70E
:20DBE000B7FD002318461037BD4680BDD826002033220020DC2600204122002040220020AF
:20DC00004222002080B586B000AF0346FB7107F10C0300221A605A600023FB8208E0FB8A47
:20DC200018333B44AA2203F80C2CFB8A0133FB82FB8A072BF3D997F9073003F00F035BB289
:20DC400043F030035BB2DBB23B7300237B730023BB7307F10C03082219464FF49170FFF7EA
:20DC60002FFB00BF1837BD4680BD80B586B000AF78600B467B8007F10C0300221A605A6091
:20DC80000023FB8208E0FB8A18333B44AA2203F80C2CFB8A0133FB82FB8A072BF3D97B88F2
:20DCA000002B02D07B88072B02D94FF0FF3322E07B88DBB203F00F03DBB23B730023FB8274
:20DCC0000CE0FB8A7A681A44FB8A0133127818333B4403F80C2CFB8A0133FB82FA8A7B8896
:20DCE0009A42EED307F10C03082219464FF49170FFF7E6FA002318461837BD4680BD0000CD
:20DD000080B586B000AF78600B467B8007F10C0300221A605A607B88072B02D97B88802BAA
:20DD200001D9002330E07B881B0A9BB25BB203F00F035BB243F010035BB2DBB23B737B88B1
:20DD4000DBB27B730023FB820CE0FB8A7A681A44FB8A0233127818333B4403F80C2CFB8A31
:20DD60000133FB82FB8A052BEFD907F10C03082219464FF49170FFF7A3FA054B01221A7011
:20DD80000120FFF7BDFC062318461837BD4680BD3322002080B586B000AF78600B467B80EA
:20DDA00013467B7007F10C0300221A605A6097F9013003F00F035BB243F020035BB2DBB2FF
:20DDC0003B730023FB820CE0FB8A7A681A44FB8A0133127818333B4403F80C2CFB8A01334B
:20DDE000FB82FA8A7B889A420DD2FB8A062BEBD909E0FB8A013318333B44AA2203F80C2C7F
:20DE0000FB8A0133FB82FB8A062BF2D907F10C03082219464FF49170FFF752FA7B88072B00
:20DE200001D9072300E07B8818461837BD4680BD80B584B000AF78600B467B807B88072B9D
:20DE400002D97B88802B02D94FF0FF3326E00023FB8109E0FB897A681A44FB891178114A33
:20DE6000D154FB890133FB81FA897B889A42F1D30D4B00221A707B8819467868FFF740FFA8
:20DE800003467B737B7B9AB2084B1A807B7B9BB27A88D31A9AB2064B1A80002318461037EB
:20DEA000BD4680BD4822002043220020CA220020C822002080B582B000AF78600B467B80C3
:20DEC0007B68002B05D07B88002B02D07B88802B02D94FF0FF3311E07B88072B05D87B885F
:20DEE00019467868FFF7C1FE07E0064B01221A707B8819467868FFF79BFF002318460837B7
:20DF0000BD4680BD3122002080B582B000AF0020FFF758FC0346002B08DAFFF7A7FC364B5E
:20DF20005B68364A11880222354898470120FFF749FC0346002B05DAFFF798FC2E4B9B68D0
:20DF4000012098470220FFF73DFC0346002B4FDA2C4B1B780133DAB22A4B1A70294B1B7803
:20DF60000F2B02D9274B00221A70274B1B881A46264B1344264A1188224A12781846FFF7DE
:20DF800009FF0346FB71FB799AB21F4B1B8813449AB21D4B1A801E4B1A88FB799BB2D31A99
:20DFA0009AB21B4B1A801A4B1B88002B1ED0194B1B78002B16D0184B1B780133DAB2164BD5
:20DFC0001A70154B1A78134B1B789A4203D20220FFF796FB0CE0114B01221A700120FFF76E
:20DFE0008FFB05E00220FFF78BFB01E0FFF73EFC00BF0837BD4680BDDC260020D626002087
:20E00000CC22002043220020CA22002048220020C822002041220020422200203322002051
:20E0200080B584B000AF03463960FB711346BB714FF0FF33FB603B68002B79D0BB79082BAB
:20E0400076D1FB79002B03D13F4B01221A7002E03D4B02221A703B681B781B09FB72FB7A7B
:20E06000032B67D801A252F823F000BF7DE0000889E00008D5E0000803E10008BB79194662
:20E080003868FFF72BFC5CE0304B1B78022B03D02E4B1B78002B4FD1FFF7E8FB2B4B1B7840
:20E0A000022B06D12A4B5B682A4A118805222A489847BB7919463868FFF746FCF860FB6879
:20E0C000002B03D1214B02221A7035E01F4B00221A7031E01D4B1B78022B2FD11F4B1B78C6
:20E0E000012B2BD1BB7919463868FFF795FCF860FB68002B22DCFFF7B9FB144B00221A70A5
:20E100001CE0124B1B78012B1AD1154B1B78012B16D1BB7919463868FFF7FCFCF860FB681A
:20E12000002B0DDAFFF7A2FB084B00221A7007E000BF06E000BF04E000BF02E000BF00E0CC
:20E1400000BF1037BD4680BDD826002031220020DC260020D6260020CC2200203222002028
:20E160003322002080B483B000AF78607B68002B0BD07B681B68002B07D07B685B68002B1A
:20E1800003D07B689B68002B02D14FF0FF330CE07B689B68074A93607B681B68054A136019
:20E1A0007B685B68034A5360002318460C37BD4680BC7047DC26002080B400AFBFF34F8F6A
:20E1C00000BF064BDB6803F4E0620449044B1343CB60BFF34F8F00BF00BFFDE700ED00E0D7
:20E1E0000400FA0580B483B000AF0346FB71044AFB79137000BF0C37BD4680BC704700BF55
:20E200009820002080B400AF024B1B781846BD4680BC70479820002080B485B000AF786047
:20E220000B467B800023FB737B88022B01D10123FB73FB7B18461437BD4680BC7047000058
:20E2400080B586B000AF78600B467B800023FB757B6801331B7803F07F03FB7550233B733D
:20E26000FB7D7B730023BB733223FB7301233B7490237B74FB7D032B28D0032B37DC012BA4
:20E2800002D0022B0ED032E0FB7D1846FFF7AAFF002000F017FB07F10C0306211846FFF776
:20E2A000EDF829E0FB7D1846FFF79CFF002000F009FB07F10C0306211846FFF7DFF801207B
:20E2C000FFF71EF80E4B01221A7015E0FB7D1846FFF788FF002000F0F5FA07F10C030621B7
:20E2E0001846FFF7CBF80120FFF70AF804E012211020FFF789F800BF00BF1837BD4680BD23
:20E30000E826002080B500AF064B1B78012B07D1044B00221A70044B044A1A60FFF74CFFB0
:20E3200000BF80BDE8260020FC0F00203412CDAB80B485B000AF78600B467B800023FB73FD
:20E340007B88022B01D10123FB73FB7B18461437BD4680BC704780B586B000AF78600B46D1
:20E360007B807B6801331B7803F07F03FB75FB7D012B02D0032B0BD015E051233B73012359
:20E380007B7307F10C0302211846FFF777F80FE051233B7303237B7307F10C0302211846F5
:20E3A000FFF76CF804E012211120FFF72DF800BF00BF1837BD4680BD80B485B000AF7860A3
:20E3C0000B467B800023FB737B88042B01D10123FB73FB7B18461437BD4680BC704780B580
:20E3E00086B000AF78600B467B8000237B6100237B617B6801331B781B047A6913437B6138
:20E400007B6802331B781B027A6913437B617B6803331B781A467B6913437B617B696FF0BA
:20E420007F42934208D154233B7307F10C0301211846FFF723F803E031211420FEF7E4FF6F
:20E4400000BF1837BD4680BD80B485B000AF78600023FB730FE0FB7B0B4A1B0113441B683D
:20E460007A689A4204D1FB7B1B01074A134406E0FB7B0133FB73FB7B012BECD900231846E9
:20E480001437BD4680BC70477820002080B485B000AF78600B467B800023FB73FB7B1846E2
:20E4A0001437BD4680BC704780B59AB000AF78600B467B800023A7F866307B6801331B78C7
:20E4C00003F07F0387F8603097F86030013B032B00F2A28101A252F823F000BFEDE4000882
:20E4E0005DE500083DE6000833E70008002387F8653015E097F86530C64A1B01134404337B
:20E500001A787B6802331B789A4204D1B7F866300133A7F8663097F86530013387F86530F3
:20E5200097F86530012BE5D959233B7397F860307B737F23BB730123FB73B7F86630DBB262
:20E540003B74B7F866301B0A9BB2DBB27B7407F10C0306211846FEF791FF62E159233B735B
:20E5600097F860307B737F23BB73002387F8643053E097F86430A74A1B01134404331A7805
:20E580007B6802331B789A4242D197F86430A14A1B0113441B681A0CB7F866309B000333A1
:20E5A000D2B268333B4403F85C2C97F86430994A1B0113441B681A0AB7F8663001339B0006
:20E5C000D2B268333B4403F85C2C97F86430914A1B0113441A68B7F866309B000533D2B28B
:20E5E00068333B4403F85C2C97F86420B7F866309B000633874912010A44043212786833C6
:20E600003B4403F85C2CB7F866300133A7F8663097F86430013387F8643097F86430012B91
:20E62000A7D9B7F866309B009BB203339AB207F10C0311461846FEF721FFF2E000233B6545
:20E640000023FB64002387F8633059233B7397F860307B73022387F86330002387F8623061
:20E6600059E0002387F8613045E097F86230694A1B0113441B681A0C97F86330591C87F803
:20E680006310D2B268333B4403F85C2C97F86230604A1B0113441B681A0A97F86330591C6A
:20E6A00087F86310D2B268333B4403F85C2C97F86230584A1B0113441A6897F86330591CF8
:20E6C00087F86310D2B268333B4403F85C2C97F863305A1C87F86320194697F861300133DA
:20E6E000DAB201F168033B4403F85C2C97F86130013387F8613097F86230464A1B011344A7
:20E700000C331B7897F861209A42AED397F86230013387F8623097F86230012BA1D997F8FE
:20E7200063309AB207F10C0311461846FEF7A6FE77E00023FB650023BB6559233B7397F8CF
:20E7400060307B737B6802331B78BB737B6803331B78FB737B6804331B783B747B680233D4
:20E760001B781B04FA6D1343FB657B6803331B781B02FA6D1343FB657B6804331B781A46D7
:20E78000FB6D1343FB657B6805331B78BB65F86DFFF75AFE78657B6D002B05D07B6D1B7B97
:20E7A0001A46BB6D934204D931211920FEF72CFE37E07B6D1B797B74BB6DDBB2BB740123EB
:20E7C000FB7411233B7511237B757B6D9968BA6D13465B001344033B0B441B78BB757B6D6F
:20E7E0009968BA6D13465B001344033B0B449B78FB757B6D9968BA6D13465B001344033B7D
:20E800000B445B783B7607F10C030D211846FEF735FE06E07820002012211920FEF7F4FD7A
:20E8200000BF00BF6837BD4680BD00BF80B485B000AF78600B467B800023FB737B88032BBE
:20E8400001D10123FB73FB7B18461437BD4680BC704780B5A4B000AF78600B467B8062235E
:20E860003B737B6801331B787B737B6802331B78BB737B6801331B781B02A7F88E307B6872
:20E8800002331B781A46B7F88E301343A7F88E30B7F88E304FF2861293420AD1FFF7B2FC96
:20E8A0000346FB7307F10C0304211846FEF7E6FD04E031212220FEF7A7FD00BF00BF9037E9
:20E8C000BD4680BD80B483B000AF0346FB71044AFB79137000BF0C37BD4680BC704700BF31
:20E8E000FC26002080B400AF024B1B781846BD4680BC7047FC26002080B500AF01F09AFF0F
:20E9000002460E4B1B681344184603F0BDFE0B4B1B680133094A136003F0E4FE0246084B2D
:20E9200083FB02131344D911D317C91A0B461B025B1AD11ACBB2184680BD00BF9C200020B5
:20E940008180808090B591B000AF78603960002387F83F301023BB631B4B07F118040FCB5A
:20E9600084E80F0007F1180207F1080311461846FEF7B3FA07F1280307F10800BA6B3968C7
:20E98000FEF7BAFA002387F83F3014E097F83F3040333B4413F8182C97F83F3079680B445C
:20E9A0001B789A4202D04FF0FF3309E097F83F30013387F83F3097F83F300F2BE6D9002382
:20E9C00018464437BD4690BD9034010880B485B000AF78600B467B800023FB737B6801335D
:20E9E0001B7803F07F03BB73BB7B012B02D17B88022B05D0BB7B022B04D17B88122B01D15D
:20EA00000123FB73FB7B18461437BD4680BC704790B589B000AF78600B467B807B680133E7
:20EA20001B7803F07F037B777B7F012B02D0022B3BD074E00020FEF7C7FC0346002B04DD2B
:20EA400037212720FEF7E0FC6EE0394B01221A7067233B727B7F7B720023FB831BE0354B8D
:20EA60001B78012B04D1FB8B334A0021D15406E0FC8BFFF741FF03461A462F4B1A55FA8BFF
:20EA8000FB8B02332C498A5C20333B4403F8182CFB8B0133FB83FB8B0F2BE0D907F108039B
:20EAA00012211846FEF7EAFC3EE0214B1B78002B04D124212720FEF7A7FC35E01C4B00220B
:20EAC0001A707B6802331C491846FFF73BFF0346002B0DD167233B727B7F7B7207F108032E
:20EAE00002211846FEF7CAFC0120FFF7EBFE1BE0124B1B780133DAB2104B1A700F4B1B785D
:20EB0000012B07D90020FEF7FBFB36212720FEF77BFC09E035212720FEF776FC04E01221D0
:20EB20002720FEF771FC00BF00BF2437BD4690BDE9260020FC260020EC260020FD2600201D
:20EB400080B485B000AF78600B467B800023FB737B88032B01D10123FB73FB7B1846143734
:20EB6000BD4680BC7047000080B586B000AF78600B467B807B6801331B7803F07F03FB75D2
:20EB80007B6802331B78BB75FB7D002B02D0032B1FD03DE0BB7D012B05D0BB7D022B02D07B
:20EBA000BB7D032B10D11F4B00221A701E4B00221A7068233B73FB7D7B7307F10C0302211A
:20EBC0001846FEF75BFC28E031212820FEF71CFC23E0BB7D012B05D0BB7D022B02D0BB7D31
:20EBE000032B10D10F4B01221A700F4B01221A7068233B73FB7D7B7307F10C0302211846D1
:20EC0000FEF73CFC09E031212820FEF7FDFB04E012212820FEF7F8FB00BF00BF1837BD4640
:20EC200080BD00BFFE260020FF26002080B485B000AF78600B467B800023FB737B88042B50
:20EC400001D90123FB73FB7B18461437BD4680BC704780B586B000AF78600B467B800023D2
:20EC6000FB757B6801331B781B02BB827B6802331B781A46BB8A1343BB82BB8A41F234226F
:20EC8000934218D1FB7D002B10D06E233B737B6801331B787B737B6802331B78BB7307F18B
:20ECA0000C0303211846FEF7E9FB09E072212E20FEF7AAFB04E031212E20FEF7A5FB00BFAE
:20ECC00000BF1837BD4680BD80B485B000AF78600B467B800023FB737B88032B01D90123EA
:20ECE000FB73FB7B18461437BD4680BC7047000080B58AB000AF78600B467B807B68013338
:20ED00001B7803F07F0387F827307B6802331B781BB21B021AB27B6803331B781BB21343E5
:20ED20001BB2BB84002387F8233071233B747B6801331B787B747B6802331B78BB747B6839
:20ED400003331B78FB7497F82730032B00F0DB80032B00F3E680012B03D0022B00F0C58034
:20ED6000DFE0BB8CB3F57F4F47D17B880B2B04D813213120FEF748FBD9E07B6804331B78C7
:20ED80001A067B6805331B781B041A437B6806331B781B0213437A68073212781343FB61B0
:20EDA0007B6808331B781A067B6809331B781B041A437B680A331B781B0213437A680B320F
:20EDC00012781343BB61BB69002B04D131213120FEF71AFBABE0B969F869FEF71FF9034602
:20EDE000002B06D107F1100304211846FEF746FB03E072213120FEF707FBBB8C40F20222F2
:20EE000093422CD17B88012B04D813213120FEF7FBFA8CE0484B1B889BB219467B6804333E
:20EE20001B781B027A6805321278134499420BD1424B01221A7010233B7507F11003052123
:20EE40001846FEF71BFB0AE03C4B00221A7001233B7507F1100305211846FEF70FFBBB8C83
:20EE600040F20522934237D17B88032B04D813213120FEF7C9FA5AE0314B1A68314B1B68DB
:20EE80009A4220D12D4B1B78012B13D110233B754FF05A33FB6007F10C03042219462A4882
:20EEA000FEF73CF90346002B06D072213120FEF7ABFA01E012233B7507F11003052118460B
:20EEC000FEF7DCFA32E001233B7507F1100305211846FEF7D3FA29E097F82330012B25D123
:20EEE00024213120FEF790FA20E097F82330012B04D124213120FEF787FA18E03121312073
:20EF0000FEF782FA13E097F82330012B04D124213120FEF779FA0AE031213120FEF774FABC
:20EF200005E012213120FEF76FFA00E000BF00BF2837BD4680BD00BFA02000200027002027
:20EF4000F07F0008FCFF010800A0000880B485B000AF78600B467B800023FB737B88042B8F
:20EF600001D90123FB73FB7B18461437BD4680BC7047000080B485B000AF78600B467B80D4
:20EF80000023FB730A4B1B78012B05D17B88022B07D90123FB7304E07B88012B01D9012343
:20EFA000FB73FB7B18461437BD4680BC704700BF0127002080B485B000AF78600B467B808B
:20EFC0000023FB737B88002B01D00123FB73FB7B18461437BD4680BC7047000080B586B08F
:20EFE00000AF78600B467B8074233B7320237B730323BB73FE23FB737B6801331B781B0917
:20F00000DAB2454B1A707B6801331B7803F00F03DAB2424B1A707B6802331B781B09BB75F9
:20F020007B6802331B7803F00F037B753C4B01221A703C4B00221A603B4B00221A60002394
:20F04000FB7515E0FB7D03331A467B6813441B7819467B7D5A1EFB7DD31ADB0001FA03F271
:20F06000304B1B6813432F4A1360FB7D0133FB75FA7D7B7D9A42E5D30023FB7517E07B7DAF
:20F08000DA1CFB7D13441A467B6813441B781946BB7D5A1EFB7DD31ADB0001FA03F2224BD2
:20F0A0001B681343204A1360FB7D0133FB75FA7DBB7D9A42E3D3BB7D042B02D87B7D042BD5
:20F0C00004D931213420FEF79FF920E0154B1B68B3F1006F07D3134B1A68134B1B68134438
:20F0E000124A934204D931213420FEF78DF90EE00F4B00221A600F4B00221A7007F10C03F0
:20F1000004211846FEF7BAF9FEF764F800BF00BF1837BD4680BD00BF032700200227002014
:20F1200001270020042700200827002000000808102700200C27002080B588B000AF78603F
:20F140000B467B8076233B737B6801331B787B73384B1A78384B1A707B6801331A78354B39
:20F160001A70364B1B78012B08D0344B1B78022B04D024213620FEF747F957E02D4B1B78C8
:20F180001A462D4B1B78D31A012B04DD73213620FEF73AF94AE0294B1B78012B46D1264B13
:20F1A0001A78244B1B789A423AD07B88023BFB83234B1A68234B1B681344BB61224B1A68D4
:20F1C000204B1B68D31A7B61FB8B7A699A4204D231213620FEF718F928E07B680233FA8B0A
:20F1E0001946B869FDF79AFF0346FB747B680233FA8B11461846FDF7F9FF03461A46134B05
:20F200001A80FB7C002B06D1FA8B0E4B1B6813440C4A136004E072213620FEF7F5F805E0C6
:20F2200007F10C0302211846FEF728F92037BD4680BD00BF0C2700201427002001270020E4
:20F24000042700201027002008270020A020002080B584B000AF78600B467B8077233B725A
:20F260007B6801331A780E4B1A700E4B1B78012B08D00C4B1B78022B04D024213720FEF796
:20F28000C3F809E0074B00221A7007F1080301211846FEF7F3F800BF00BF1037BD4680BD64
:20F2A0000C2700200127002080B485B000AF78600B467B800023FB737B88022B01D10123C0
:20F2C000FB73FB7B18461437BD4680BC704780B586B000AF78600B467B807B6801331B78C3
:20F2E00003F07F03FB75FB7D002B0AD17E233B73FB7D7B7307F10C0302211846FEF7BEF8C3
:20F3000003E012213E20FEF77FF800BF1837BD4680BD80B485B000AF78600B467B80002360
:20F32000FB737B88022B01D10123FB73FB7B18461437BD4680BC704780B586B000AF7860C4
:20F340000B467B807B6801331B7803F07F03FB75FB7D012B02D0022B0ED01BE0124B0122D6
:20F360001A70C5233B73FB7D7B7307F10C0302211846FEF783F812E00B4B02221A70C52331
:20F380003B73FB7D7B7307F10C0302211846FEF775F804E012218520FEF736F800BF00BF12
:20F3A0001837BD4680BD00BFA220002080B500AF00F054F8214B224A9A60BFF34F8F00BFDC
:20F3C000BFF36F8F00BF72B600BF01F00BFA62B600BF00F0B1F800F03DFA00F073FA00F0FD
:20F3E000E9F8FDF77EFF174A10211748FDF79CFA00F04EFA01F01EFA0246144B1B680133A1
:20F400009A42F7D301F016FA0346104A1360FDF76EFF0F4B1B685A1C0D490A60B3F5C87FCC
:20F42000E8D9FEF76FFF0B4802F00CFE084B00221A600121084801F0E7FFDBE700ED00E092
:20F4400000C00008A0340108A4200020182700201C270020482700200010014080B590B00C
:20F4600000AF07F11803282200211846FCF7E7FF3B1D00221A605A609A60DA601A610A239E
:20F48000BB610123BB621023FB6201233B6302237B630023BB634FF4E013FB6307F11803D2
:20F4A000184601F0F5F90346002B01D000F018F80F237B600223BB600023FB6000233B6140
:20F4C00000237B613B1D0221184601F063FC0346002B01D000F004F800BF4037BD4680BD5D
:20F4E00080B400AF72B600BF00BFFDE780B582B000AF78600E4B1B680E4AA2FB03239B0916
:20F50000184602F04EFB0346002B01D001230BE07B680F2B07D8002279684FF0FF3002F09F
:20F5200016FB002300E0012318460837BD4680BDBC200020D34D621080B586B000AF07F116
:20F54000080300221A605A609A60DA60174B9B69164A43F010039361144B9B6903F01003AD
:20F560007B607B68114B9B69104A43F0040393610E4B9B6903F004033B603B68002201210C
:20F580000B4801F029FF0123BB600123FB6000233B6102237B6107F108031946044801F0E2
:20F5A00087FD00BF1837BD4680BD00BF001002400010014080B500AF184B194A1A60174B91
:20F5C00009225A60154B00229A60144B0022DA60124B4FF4A0221A61104B00225A610F4BA0
:20F5E00000221A760D4B01225A760C4B00229A760A4B0122DA76094B00221A77074B002242
:20F600005A77064800F07AFA0346002B01D0FFF767FF00F063F800BF80BD00BF2027002059
:20F620000064004080B588B000AF786007F1100300221A605A609A60DA607B681B68244AC9
:20F64000934241D1234BDB69224A43F00073D361204BDB6903F00073FB60FB681D4B9B698C
:20F660001C4A43F0040393611A4B9B6903F00403BB60BB684FF400633B6100237B610023F1
:20F68000BB6107F110031946134801F011FD4FF480533B6102237B610323FB6107F110034A
:20F6A00019460D4801F004FD00220021142002F04EFA142002F067FA00220021152002F002
:20F6C00046FA152002F05FFA00BF2037BD4680BD00640040001002400008014080B58AB066
:20F6E00000AF00237B610023BB610123FB6100233B6000237B600023BB600023FB60002302
:20F700003B6101233B620E237B623B4619460E4800F0EFFA0346002B01D0FFF7E1FE0A4803
:20F7200000F0B0FB0346002B01D0FFF7D9FE0221054800F00FFE0346002B01D0FFF7D0FEA6
:20F7400000BF2837BD4680BD2027002080B58CB000AFF860B9607A60FB68002B05D0BB68F3
:20F76000002B02D07B68002B01D1002313E007F11402BB6800210A4800F0CBFC0346002BC7
:20F7800001D0002307E07A69FB681A607B6ADAB27B681A70012318463037BD4680BD00BF08
:20F7A0002027002080B58CB000AFF860B9601346FB71FB68BB610023FB6100233B620023AB
:20F7C0007B62FB79BB62002387F82C300D4800F06CFC0346002B02D1012001F035F807F192
:20F7E000140307F11801BA68064800F08FFB0346002B01D0FFF774FE00BF18463037BD46C3
:20F8000080BD00BF2027002080B588B000AF786007F10F0207F1100107F118031846FFF718
:20F8200095FF0346012B11D1BB690133FB61FB69B3F5006F02D340F2FF73FB61BB6907F1BD
:20F84000100108221846FDF719FD00E000BF2037BD4680BD80B582B000AF0C4B5B690B4A49
:20F8600043F001035361094B5B6903F001037B607B68002200210E2002F069F90E2002F0EB
:20F8800082F900BF0837BD4680BD00BF0010024080B500AF094B0A4A1A60084B01225A6068
:20F8A000064B40F6C4129A60044802F087FB0346002B01D0FFF714FE00BF80BD4827002059
:20F8C0000030004080B500AF114B124A1A60104B4FF4E1325A600E4B00229A600C4B002249
:20F8E000DA600B4B00221A61094B0C225A61084B00229A61064B0022DA61054802F0B1FB95
:20F900000346002B01D0FFF7EBFD00BF80BD00BF542700200038014080B588B000AF786001
:20F9200007F1100300221A605A609A60DA607B681B682F4A934257D12E4B9B692D4A43F42B
:20F94000804393612B4B9B6903F48043FB60FB68284B9B69274A43F004039361254B9B6974
:20F9600003F00403BB60BB684FF400733B6102237B610323FB6107F1100319461E4801F0B9
:20F9800097FB4FF480633B6100237B610023BB6107F110031946184801F08AFB174B184AD1
:20F9A0001A60164B10225A60144B00229A60134B8022DA60114B00221A61104B00225A619A
:20F9C0000E4B00229A610D4B0022DA610B4801F035FD0346002B01D0FFF782FD7B68074A98
:20F9E0009A63064A7B68536200BF2037BD4680BD0038014000100240000801409C270020D5
:20FA00004400024080B400AF00BFFDE780B400AF00BFFDE780B400AF00BFFDE780B400AFEB
:20FA200000BFFDE780B400AF00BFFDE780B400AF00BFBD4680BC704780B400AF00BFBD4660
:20FA400080BC704780B400AF00BFBD4680BC704780B500AF00F0DCFE00BF80BD80B500AF8D
:20FA6000024801F061FD00BF80BD00BF9C27002080B500AF024800F092FC00BF80BD00BFE8
:20FA80002027002080B500AF024800F088FC00BF80BD00BF2027002080B485B000AF154BC3
:20FAA0009B69144A43F001039361124B9B6903F00103BB60BB680F4BDB690E4A43F0805327
:20FAC000D3610C4BDB6903F080537B607B680A4B5B68FB60FB6823F0E063FB60FB6843F0B6
:20FAE0000073FB60044AFB68536000BF1437BD4680BC7047001002400000014080B584B0D8
:20FB000000AF78607B68002B01D10123EDE07B6893F82030DBB2002B02D17868FFF782FDEF
:20FB20007B681B681A687B681B6842F001021A6000F080FEF86012E000F07CFE0246FB68FB
:20FB4000D31A0A2B0BD97B685B6A43F400327B685A627B68052283F820200123C5E07B687E
:20FB60001B685B6803F00103002BE5D07B681B681A687B681B6822F002021A6000F05AFE42
:20FB8000F86012E000F056FE0246FB68D31A0A2B0BD97B685B6A43F400327B685A627B6893
:20FBA000052283F8202001239FE07B681B685B6803F00203002BE5D17B681B7E012B08D13D
:20FBC0007B681B681A687B681B6842F080021A6007E07B681B681A687B681B6822F08002E0
:20FBE0001A607B685B7E012B08D17B681B681A687B681B6842F040021A6007E07B681B6841
:20FC00001A687B681B6822F040021A607B689B7E012B08D17B681B681A687B681B6842F0AD
:20FC200020021A6007E07B681B681A687B681B6822F020021A607B68DB7E012B08D17B6821
:20FC40001B681A687B681B6822F010021A6007E07B681B681A687B681B6842F010021A60A8
:20FC60007B681B7F012B08D17B681B681A687B681B6842F008021A6007E07B681B681A682F
:20FC80007B681B6822F008021A607B685B7F012B08D17B681B681A687B681B6842F0040220
:20FCA0001A6007E07B681B681A687B681B6822F004021A607B689A687B68DB681A437B68B8
:20FCC0001B691A437B685B6942EA03017B685B685A1E7B681B680A43DA617B6800225A629F
:20FCE0007B68012283F82020002318461037BD4680BD80B487B000AF786039607B681B684A
:20FD00007B617B6893F82030FB74FB7C012B03D0FB7C022B40F0AA807B69D3F8003243F052
:20FD200001027B69C3F800223B685B6903F01F03012202FA03F3FB607B69D3F81C22FB68C3
:20FD4000DB431A407B69C3F81C223B68DB69002B23D17B69D3F80C22FB68DB431A407B69AC
:20FD6000C3F80C223B68DB6819043B685B689BB23A68526919437B69483243F832103B68AD
:20FD80009B6819043B681B689AB23B685B690A4379694833DB000B445A603B68DB69012BC9
:20FDA00022D17B69D3F80C22FB681A437B69C3F80C223B681B6819043B685B689BB23A684E
:20FDC000526919437B69483243F832103B689B6819043B68DB689AB23B685B690A437969A6
:20FDE0004833DB000B445A603B689B69002B09D17B69D3F80422FB68DB431A407B69C3F8A9
:20FE0000042207E07B69D3F80422FB681A437B69C3F804223B681B69002B09D17B69D3F8A0
:20FE20001422FB68DB431A407B69C3F8142207E07B69D3F81422FB681A437B69C3F814227B
:20FE40003B681B6A012B07D17B69D3F81C22FB681A437B69C3F81C227B69D3F8003223F0F8
:20FE600001027B69C3F80022002306E07B685B6A43F480227B685A62012318461C37BD46BD
:20FE800080BC704780B584B000AF78607B6893F82030DBB2012B2ED17B68022283F8202047
:20FEA0007B681B681A687B681B6822F001021A6000F0C0FCF86012E000F0BCFC0246FB681C
:20FEC000D31A0A2B0BD97B685B6A43F400327B685A627B68052283F82020012312E07B68AE
:20FEE0001B685B6803F00103002BE5D17B6800225A62002306E07B685B6A43F400227B6836
:20FF00005A62012318461037BD4680BD80B489B000AFF860B9607A603B60FB6893F82030DC
:20FF2000FB77FB681B689B68BB61FB7F012B03D0FB7F022B40F0AD80BB6903F08063002BA8
:20FF40000AD1BB6903F00063002B05D1BB6903F08053002B00F09580BB691B0E03F00303EB
:20FF60007B6101227B699A403B681A60BB689B68002B0DD1BB681B685A05BB68DB68F968AC
:20FF800009681A437B6918331B010B441A600FE0BB685B68DA00BB689B681A43BB68DB68E7
:20FFA000F96809681A437B6918331B010B441A60FB681968BB681A697B6918331B010B44DA
:20FFC00004331A60BB681B7D012B11D1FB681A687B6918331B01134404331B68FA6811688B
:20FFE00043F480727B6918331B010B4404331A607B6807331B781A067B6806331B781B04EF
:020000040801F1
:200000001A437B6805331B781B0213437A68043212781046FA68116843EA00027B691B0160
:200020000B4403F5C6731A607B6803331B781A067B6802331B781B041A437B6801331B7829
:200040001B0213437A6812781046FA68116843EA00027B691B010B4403F5C4731A60FB6806
:200060001A687B6918331B0113441B68FA68116843F001027B6918331B010B441A60002391
:200080000EE0FB685B6A43F40012FB685A62012306E0FB685B6A43F48022FB685A62012394
:2000A00018462437BD4680BC704780B485B000AF78600023FB607B6893F82030FB72FB7A83
:2000C000012B02D0FB7A022B1DD17B681B689B6803F08063002B02D0FB680133FB607B6881
:2000E0001B689B6803F00063002B02D0FB680133FB607B681B689B6803F08053002B02D009
:20010000FB680133FB60FB6818461437BD4680BC704780B487B000AFF860B9607A603B60EB
:20012000FB6893F82030FB75FB7D012B03D0FB7D022B40F00381BB68002B0ED1FB681B682E
:20014000DB6803F00303002B16D1FB685B6A43F40012FB685A620123F7E0FB681B681B695C
:2001600003F00303002B07D1FB685B6A43F40012FB685A620123E8E0FB681A68BB681B33B1
:200180001B0113441B6803F004027B689A607B689B68002B0CD1FB681A68BB681B331B0133
:2001A00013441B685B0DC3F30A027B681A600BE0FB681A68BB681B331B0113441B68DB08C4
:2001C00023F060427B685A60FB681A68BB681B331B0113441B6803F002027B68DA60FB680A
:2001E0001A68BB681B331B01134404331B6803F00803002B03D07B6808221A610BE0FB680D
:200200001A68BB681B331B01134404331B6803F00F027B681A61FB681A68BB681B331B01EA
:20022000134404331B681B0ADAB27B689A61FB681A68BB681B331B01134404331B681B0C74
:200240009AB27B685A61FB681A68BB681B01134403F5DC731B68DAB23B681A70FB681A68D1
:20026000BB681B01134403F5DC731B681A0A3B680133D2B21A70FB681A68BB681B0113449A
:2002800003F5DC731B681A0C3B680233D2B21A70FB681A68BB681B01134403F5DC731B6843
:2002A0001A0E3B680333D2B21A70FB681A68BB681B01134403F5DE731A683B680433D2B28B
:2002C0001A70FB681A68BB681B01134403F5DE731B681A0A3B680533D2B21A70FB681A685B
:2002E000BB681B01134403F5DE731B681A0C3B680633D2B21A70FB681A68BB681B01134411
:2003000003F5DE731B681A0E3B680733D2B21A70BB68002B08D1FB681B68DA68FB681B68C9
:2003200042F02002DA6007E0FB681B681A69FB681B6842F020021A61002306E0FB685B6AF9
:2003400043F48022FB685A62012318461C37BD4680BC704780B485B000AF786039607B686E
:2003600093F82030FB73FB7B012B02D0FB7B022B09D17B681B6859697B681B683A680A43C6
:200380005A61002306E07B685B6A43F480227B685A62012318461437BD4680BC704780B581
:2003A0008AB000AF786000237B627B681B685B693B627B681B685B68FB617B681B689B68C7
:2003C000BB617B681B68DB687B617B681B681B693B617B681B689B69FB603B6A03F0010395
:2003E000002B7CD0BB6903F00103002B23D07B681B6801229A60BB6903F00203002B03D0B0
:20040000786800F083F916E0BB6903F00403002B04D07B6A43F400637B620CE0BB6903F01E
:200420000803002B04D07B6A43F480537B6202E0786800F086F9BB6903F48073002B24D088
:200440007B681B684FF480729A60BB6903F40073002B03D0786800F062F916E0BB6903F43F
:200460008063002B04D07B6A43F400537B620CE0BB6903F40063002B04D07B6A43F4804306
:200480007B6202E0786800F065F9BB6903F48033002B24D07B681B684FF480329A60BB6909
:2004A00003F40033002B03D0786800F041F916E0BB6903F48023002B04D07B6A43F40043F8
:2004C0007B620CE0BB6903F40023002B04D07B6A43F480337B6202E0786800F044F93B6AD6
:2004E00003F00803002B0CD07B6903F01003002B07D07B6A43F400737B627B681B68102207
:20050000DA603B6A03F00403002B0BD07B6903F00803002B06D07B681B680822DA6078686F
:2005200000F02AF93B6A03F00203002B09D07B681B68DB6803F00303002B02D07868FFF792
:2005400063F93B6A03F04003002B0CD03B6903F01003002B07D07B6A43F480637B627B68F2
:200560001B6810221A613B6A03F02003002B0BD03B6903F00803002B06D07B681B68082257
:200580001A61786800F00AF93B6A03F01003002B09D07B681B681B6903F00303002B02D07E
:2005A000786800F0F2F83B6A03F40033002B0BD0FB6903F01003002B06D07B681B681022A9
:2005C0005A60786800F0F3F83B6A03F48033002B0BD0FB6903F00803002B06D07B681B6888
:2005E00008225A60786800F0EBF83B6A03F40043002B7BD0FB6903F00403002B72D03B6A9F
:2006000003F48073002B08D0FB6803F00103002B03D07B6A43F001037B623B6A03F400738D
:20062000002B08D0FB6803F00203002B03D07B6A43F002037B623B6A03F48063002B08D0E2
:20064000FB6803F00403002B03D07B6A43F004037B623B6A03F40063002B43D0FB6803F0B0
:200660007003002B3ED0FB6803F07003602B2BD0602B2ED8502B22D0502B2AD8402B19D0B0
:20068000402B26D8302B10D0302B22D8102B02D0202B05D01DE07B6A43F008037B6219E03E
:2006A0007B6A43F010037B6214E07B6A43F020037B620FE07B6A43F040037B620AE07B6A30
:2006C00043F080037B6205E07B6A43F480737B6200E000BF7B681B689A697B681B6822F036
:2006E00070029A617B681B6804225A607B6A002B08D07B685A6A7B6A1A437B685A627868F7
:2007000000F067F800BF2837BD4680BD80B483B000AF786000BF0C37BD4680BC704780B412
:2007200083B000AF786000BF0C37BD4680BC704780B483B000AF786000BF0C37BD4680BCD8
:20074000704780B483B000AF786000BF0C37BD4680BC704780B483B000AF786000BF0C370C
:20076000BD4680BC704780B483B000AF786000BF0C37BD4680BC704780B483B000AF7860AF
:2007800000BF0C37BD4680BC704780B483B000AF786000BF0C37BD4680BC704780B483B014
:2007A00000AF786000BF0C37BD4680BC704780B483B000AF786000BF0C37BD4680BC7047D4
:2007C00080B483B000AF786000BF0C37BD4680BC704780B483B000AF786000BF0C37BD4640
:2007E00080BC704780B500AF084B1B68074A43F010031360032001F09FF90F20FEF776FEFE
:20080000FFF74AF90023184680BD00BF0020024080B400AF054B1B781A46054B1B68134470
:20082000034A136000BFBD4680BC7047B8200020E027002080B400AF024B1B681846BD4610
:2008400080BC7047E027002080B584B000AF7860FFF7F0FFB8607B68FB60FB68B3F1FF3F0E
:2008600005D00A4B1B781A46FB681344FB6000BFFFF7E0FF0246BB68D31AFA689A42F7D84D
:2008800000BF00BF1037BD4680BD00BFB820002080B586B000AF78607B68002B01D10123A6
:2008A00072E27B681B6803F00103002B00F08780924B5B6803F00C03042B0CD08F4B5B681B
:2008C00003F00C03082B12D18C4B5B6803F48033B3F5803F0BD1894B1B6803F40033002BCD
:2008E0006CD07B685B68002B68D101234CE27B685B68B3F5803F06D1804B1B687F4A43F42E
:20090000803313602EE07B685B68002B0CD17B4B1B687A4A23F480331360784B1B68774AA4
:2009200023F4802313601DE07B685B68B3F5A02F0CD1724B1B68714A43F4802313606F4B91
:200940001B686E4A43F4803313600BE06B4B1B686A4A23F480331360684B1B68674A23F4EC
:20096000802313607B685B68002B13D0FFF762FF386108E0FFF75EFF02463B69D31A642B1A
:2009800001D9032300E25D4B1B6803F40033002BF0D014E0FFF74EFF386108E0FFF74AFF3E
:2009A00002463B69D31A642B01D90323ECE1534B1B6803F40033002BF0D100E000BF7B6849
:2009C0001B6803F00203002B63D04C4B5B6803F00C03002B0BD0494B5B6803F00C03082B50
:2009E0001CD1464B5B6803F48033002B16D1434B1B6803F00203002B05D07B681B69012B5E
:200A000001D00123C0E13D4B1B6823F0F8027B685B69DB00394913430B603AE07B681B69E2
:200A2000002B20D0364B01221A60FFF703FF386108E0FFF7FFFE02463B69D31A022B01D931
:200A40000323A1E12D4B1B6803F00203002BF0D02A4B1B6823F0F8027B685B69DB00274919
:200A600013430B6015E0264B00221A60FFF7E2FE386108E0FFF7DEFE02463B69D31A022B84
:200A800001D9032380E11D4B1B6803F00203002BF0D17B681B6803F00803002B3AD07B68AA
:200AA0009B69002B19D0174B01221A60FFF7C2FE386108E0FFF7BEFE02463B69D31A022B30
:200AC00001D9032360E10D4B5B6A03F00203002BF0D0012000F0CEFA1CE00A4B00221A600F
:200AE000FFF7A8FE38610FE0FFF7A4FE02463B69D31A022B08D9032346E100BF00100240F5
:200B00000000424280044242924B5B6A03F00203002BE9D17B681B6803F00403002B00F04F
:200B2000A6800023FB758B4BDB6903F08053002B0DD1884BDB69874A43F08053D361854B21
:200B4000DB6903F08053BB60BB680123FB75824B1B6803F48073002B18D17F4B1B687E4A56
:200B600043F480731360FFF765FE386108E0FFF761FE02463B69D31A642B01D9032303E15D
:200B8000754B1B6803F48073002BF0D07B68DB68012B06D16F4B1B6A6E4A43F00103136271
:200BA0002DE07B68DB68002B0CD16A4B1B6A694A23F001031362674B1B6A664A23F0040380
:200BC00013621CE07B68DB68052B0CD1614B1B6A604A43F0040313625E4B1B6A5D4A43F0DF
:200BE000010313620BE05B4B1B6A5A4A23F001031362584B1B6A574A23F0040313627B68FB
:200C0000DB68002B15D0FFF715FE38610AE0FFF711FE02463B69D31A41F28832934201D97B
:200C20000323B1E04B4B1B6A03F00203002BEED014E0FFF7FFFD38610AE0FFF7FBFD024662
:200C40003B69D31A41F28832934201D903239BE0404B1B6A03F00203002BEED1FB7D012B30
:200C600005D13C4BDB693B4A23F08053D3617B68DB69002B00F08780364B5B6803F00C03A5
:200C8000082B61D07B68DB69022B46D1334B00221A60FFF7CFFD386108E0FFF7CBFD024622
:200CA0003B69D31A022B01D903236DE0294B1B6803F00073002BF0D17B681B6AB3F5803F11
:200CC00008D1244B5B6823F400327B689B68214913434B601F4B5B6823F474127B68196A3F
:200CE0007B685B6A0B431B4913434B601B4B01221A60FFF79FFD386108E0FFF79BFD0246AD
:200D00003B69D31A022B01D903233DE0114B1B6803F00073002BF0D035E0104B00221A60BC
:200D2000FFF788FD386108E0FFF784FD02463B69D31A022B01D9032326E0064B1B6803F06D
:200D40000073002BF0D11EE07B68DB69012B07D1012319E000100240007000406000424208
:200D60000B4B5B68FB60FB6803F480327B681B6A9A4206D1FB6803F470127B685B6A9A4278
:200D800001D0012300E0002318461837BD4680BD0010024080B584B000AF786039607B68B0
:200DA000002B01D10123D0E06A4B1B6803F007033A689A4210D9674B1B6823F007026549C7
:200DC0003B6813430B60634B1B6803F007033A689A4201D00123B8E07B681B6803F0020318
:200DE000002B20D07B681B6803F00403002B05D0594B5B68584A43F4E06353607B681B68DC
:200E000003F00803002B05D0534B5B68524A43F460535360504B5B6823F0F0027B689B68F1
:200E20004D4913434B607B681B6803F00103002B40D07B685B68012B07D1474B1B6803F4CD
:200E40000033002B15D101237FE07B685B68022B07D1414B1B6803F00073002B09D1012382
:200E600073E03D4B1B6803F00203002B01D101236BE0394B5B6823F003027B685B6836492C
:200E800013434B60FFF7D6FCF8600AE0FFF7D2FC0246FB68D31A41F28832934201D9032329
:200EA00053E02D4B5B6803F00C027B685B689B009A42EBD1274B1B6803F007033A689A427A
:200EC00010D2244B1B6823F0070222493B6813430B60204B1B6803F007033A689A4201D019
:200EE000012332E07B681B6803F00403002B08D0194B5B6823F4E0627B68DB6816491343FE
:200F00004B607B681B6803F00803002B09D0124B5B6823F460527B681B69DB000E491343E6
:200F20004B6000F021F802460B4B5B681B0903F00F030A49CB5C22FA03F3094A1360094BCD
:200F40001B681846FEF7D2FA002318461037BD4680BD00BF00200240001002400C38010827
:200F6000BC200020B420002080B487B000AF0023FB600023BB6000237B6100237B6000238B
:200F80003B611E4B5B68FB60FB6803F00C03042B02D0082B03D027E0194B3B6127E0FB6851
:200FA0009B0C03F00F03174AD35C7B60FB6803F48033002B10D0114B5B685B0C03F0010385
:200FC000114AD35CBB607B680D4A03FB02F2BB68B2FBF3F37B6104E07B680C4A02FB03F39E
:200FE0007B617B693B6102E0054B3B6100BF3B6918461C37BD4680BC704700BF00100240AC
:2010000000127A00F83701080838010800093D0080B400AF024B1B681846BD4680BC704776
:20102000BC20002080B500AFFFF7F2FF0246054B5B681B0A03F007030349CB5C22FA03F3E7
:20104000184680BD001002401C38010880B500AFFFF7DEFF0246054B5B68DB0A03F0070352
:201060000349CB5C22FA03F3184680BD001002401C38010880B485B000AF78600A4B1B68D9
:201080000A4AA2FB03235B0A7A6802FB03F3FB6000BFFB685A1EFA60002BF9D100BF00BF3D
:2010A0001437BD4680BC7047BC200020D34D621080B48BB000AF7860396000237B620023AF
:2010C0003B6279E101227B6A02FA03F3FB613B681B68FA691340BB61BA69FB699A4240F038
:2010E00068813B685B68964A93425ED0944A934275D8944A934258D0924A93426FD8924A0F
:20110000934252D0904A934269D8904A93424CD08E4A934263D88E4A934246D08C4A9342C7
:201120005DD8122B2AD8122B59D801A252F823F0AB1101088511010897110108D9110108C5
:20114000DF110108DF110108DF110108DF110108DF110108DF110108DF110108DF110108C7
:20116000DF110108DF110108DF110108DF110108DF1101088D110108A1110108754A93429C
:2011800013D02CE03B68DB683B6229E03B68DB6804333B6224E03B68DB6808333B621FE059
:2011A0003B68DB680C333B621AE03B689B68002B02D104233B6213E03B689B68012B05D170
:2011C00008233B627B68FA691A6109E008233B627B68FA695A6103E000233B6200E000BF92
:2011E000BB69FF2B01D87B6801E07B6804337B61BB69FF2B02D87B6A9B0002E07B6A083B5C
:201200009B003B617B691A680F213B6901FA03F3DB431A40396A3B6901FA03F31A437B697B
:201220001A603B685B6803F08053002B00F0C180494B9B69484A43F001039361464B9B69C2
:2012400003F00103BB60BB68444A7B6A9B08023352F82330FB607B6A03F003039B000F226C
:2012600002FA03F3DB43FA681340FB607B683C4A93421FD07B683B4A934219D07B683A4A94
:20128000934213D07B68394A93420DD07B68384A934207D07B68374A934201D105230AE050
:2012A000062308E0042306E0032304E0022302E0012300E000237A6A02F003029200934098
:2012C000FA681343FB6025497B6A9B080233FA6841F823203B685B6803F48013002B06D001
:2012E000254B9A682449BB6913438B6006E0224B9A68BB69DB43204913408B603B685B6806
:2013000003F40013002B06D01B4BDA681A49BB691343CB6006E0184BDA68BB69DB431649E6
:201320001340CB603B685B6803F40033002B25D0114B5A681049BB6913434B6025E000BF1F
:201340000000321000003110000022100000211000001210000011100010024000000140D1
:2013600000080140000C0140001001400014014000180140001C014000040140154B5A6814
:20138000BB69DB43134913404B603B685B6803F48033002B06D00F4B1A680E49BB691343F3
:2013A0000B6006E00B4B1A68BB69DB43094913400B607B6A01337B623B681A687B6A22FA96
:2013C00003F3002B7FF47EAE00BF00BF2C37BD4680BC70470004014080B483B000AF786043
:2013E0000B467B8013467B707B78002B03D07A887B681A6103E07B881A047B681A6100BFEB
:201400000C37BD4680BC704780B485B000AF78600B467B807B68DB68FB607A88FB6813401E
:201420001A04FB68D9437B880B401A437B681A6100BF1437BD4680BC7047000080B485B09D
:2014400000AF78600023FB607B68002B01D1012359E07B681B681A462D4B9A420FD87B6866
:201460001B681A462B4B13442B4AA2FB03231B099A007B681A647B68284ADA630EE07B6802
:201480001B681A46264B1344234AA2FB03231B099A007B681A647B68224ADA637B680222BF
:2014A00083F821207B681B681B68FB60FB6823F47F5323F03003FB607B685A687B689B68B4
:2014C0001A437B68DB681A437B681B691A437B685B691A437B689B691A437B68DB691343A3
:2014E000FA681343FB607B681B68FA681A607B6800229A637B68012283F821207B680022CE
:2015000083F82020002318461437BD4680BC704707040240F8FFFDBFCDCCCCCC00000240DB
:20152000F8FBFDBF0004024080B584B000AF78607B68DB6B1B68FB607B681B681B68BB60BB
:201540007B681B6C04229A40FB681340002B00F0F180BB6803F00403002B00F0EB807B6859
:201560001B681B6803F02003002B07D17B681B681A687B681B6822F004021A607B681B6806
:201580001A465F4B9A4258D97B681B685D4A93424FD07B681B685C4A934248D07B681B68D4
:2015A0005A4A934240D07B681B68594A934238D07B681B68574A934230D07B681B68564ADA
:2015C000934228D07B681B684D4A934220D07B681B68524A934219D07B681B68504A9342E7
:2015E00012D07B681B684F4A93420AD07B681B684D4A934202D14FF480431BE04FF48023CF
:2016000018E04FF4806315E0402313E0042311E04FF080630EE04FF480030BE04FF48023A2
:2016200008E04FF4804305E04FF4806302E0402300E004233D4A536057E07B681B68314A13
:2016400093424FD07B681B682F4A934248D07B681B682E4A934240D07B681B682C4A934256
:2016600038D07B681B682B4A934230D07B681B68294A934228D07B681B68214A934220D076
:201680007B681B68254A934219D07B681B68244A934212D07B681B68224A93420AD07B68C8
:2016A0001B68214A934202D14FF480431BE04FF4802318E04FF4806315E0402313E004231D
:2016C00011E04FF080630EE04FF480030BE04FF4802308E04FF4804305E04FF4806302E097
:2016E000402300E00423124A53607B68DB6A002B00F036817B68DB6A7868984730E100BFC0
:2017000080000240080002401C0002403000024044000240580002406C00024008040240D1
:201720001C040240300402404404024000040240000002407B681B6C02229A40FB681340A1
:20174000002B00F0DD80BB6803F00203002B00F0D7807B681B681B6803F02003002B0BD17E
:201760007B681B681A687B681B6822F00A021A607B68012283F821207B681B681A467B4B35
:201780009A4258D97B681B68794A93424FD07B681B68784A934248D07B681B68764A93420F
:2017A00040D07B681B68754A934238D07B681B68734A934230D07B681B68724A934228D030
:2017C0007B681B68694A934220D07B681B686E4A934219D07B681B686C4A934212D07B6899
:2017E0001B686B4A93420AD07B681B68694A934202D14FF400531BE04FF4003318E04FF4FF
:20180000007315E0202313E0022311E04FF000730EE04FF400130BE04FF4003308E04FF492
:20182000005305E04FF4007302E0202300E00223594A536057E07B681B684D4A93424FD012
:201840007B681B684B4A934248D07B681B684A4A934240D07B681B68484A934238D07B6809
:201860001B68474A934230D07B681B68454A934228D07B681B683D4A934220D07B681B68A5
:20188000414A934219D07B681B68404A934212D07B681B683E4A93420AD07B681B683D4ACE
:2018A000934202D14FF400531BE04FF4003318E04FF4007315E0202313E0022311E04FF04B
:2018C00000730EE04FF400130BE04FF4003308E04FF4005305E04FF4007302E0202300E0D2
:2018E00002232E4A53607B68002283F820207B689B6A002B34D07B689B6A786898472FE00B
:201900007B681B6C08229A40FB681340002B28D0BB6803F00803002B23D07B681B681A6859
:201920007B681B6822F00E021A607B681A6C7B68DB6B012101FA02F25A607B6801229A6345
:201940007B68012283F821207B68002283F820207B681B6B002B04D07B681B6B7868984775
:2019600000BF00BF1037BD4680BD00BF80000240080002401C000240300002404400024041
:20198000580002406C000240080402401C04024030040240440402400004024000000240C7
:2019A00080B485B000AF78607B6803F00703FB600C4BDB68BB60BA684FF6FF031340BB6070
:2019C000FB681A02BB68134343F0BF6343F40033BB60044ABB68D36000BF1437BD4680BC48
:2019E000704700BF00ED00E080B400AF044BDB681B0A03F007031846BD4680BC704700BFFA
:201A000000ED00E080B483B000AF0346FB7197F90730002B0BDBFB7903F01F02064997F9EF
:201A200007305B09012000FA02F241F8232000BF0C37BD4680BC704700E100E080B483B060
:201A400000AF03463960FB7197F90730002B0ADB3B68DAB20C4997F907301201D2B20B4481
:201A600083F800230AE03B68DAB20849FB7903F00F03043B1201D2B20B441A7600BF0C372E
:201A8000BD4680BC704700BF00E100E000ED00E080B489B000AFF860B9607A60FB6803F046
:201AA0000703FB61FB69C3F10703042B28BF0423BB61FB690433062B02D9FB69033B00E01C
:201AC00000237B614FF0FF32BB6902FA03F3DA43BB681A407B699A404FF0FF317B6901FADB
:201AE00003F3D9437B680B40134318462437BD4680BC704780B582B000AF78607B68013B94
:201B0000B3F1807F01D301230FE00A4A7B68013B53600F214FF0FF30FFF790FF054B002280
:201B20009A60044B07221A60002318460837BD4680BD00BF10E000E080B582B000AF78603C
:201B40007868FFF72DFF00BF0837BD4680BD80B586B000AF0346B9607A60FB7300237B6182
:201B6000FFF742FF78617A68B9687869FFF790FF024697F90F3011461846FFF75FFF00BF0D
:201B80001837BD4680BD80B582B000AF0346FB7197F907301846FFF735FF00BF0837BD469B
:201BA00080BD80B582B000AF78607868FFF7A2FF034618460837BD4680BD0000F0B587B081
:201BC00000AFF860B960C7E900230123FB750023BB7500237B752F4B1B7E012B01D10223E2
:201BE00054E02C4B01221A764CF2503000F0A8F80346FB75FB7D002B44D1FB68012B02D166
:201C000001237B7507E0FB68022B02D102237B7501E004237B750023BB752DE0BB7D5A0067
:201C2000BB6802EB030CBB7D1901D7E90023C1F12006A1F1200022FA01F403FA06F6344345
:201C400023FA00F0044323FA01F5A3B21946604600F05AF84CF2503000F072F80346FB75B0
:201C60000D4B1B690C4A23F001031361FB7D002B07D1BB7D0133BB75BA7D7B7D9A42CDD3E5
:201C800000E000BF034B00221A76FB7D18461C37BD46F0BDE82700200020024080B483B0D4
:201CA00000AF0023FB710D4B1B6903F08003002B0DD00A4B0A4A5A60084B0A4A5A60074B76
:201CC0001B6903F08003002B01D00123FB71FB7918460C37BD4680BC704700BF0020024052
:201CE00023016745AB89EFCD80B400AF054B1B69044A43F08003136100231846BD4680BC35
:201D0000704700BF0020024080B483B000AF78600B467B80084B0022DA61084B1B69074AD9
:201D200043F0010313617B687A881A8000BF0C37BD4680BC704700BFE82700200020024031
:201D400080B584B000AF7860FEF774FDF86010E07B68B3F1FF3F0CD07B68002B07D0FEF76A
:201D600069FD0246FB68D31A7A689A4201D2032325E0154BDB6803F00103002BE8D1124BCE
:201D8000DB6803F02003002B02D00F4B2022DA600D4BDB6803F01003002B0BD10A4BDB69D6
:201DA00003F00103002B05D1074BDB6803F00403002B03D000F00AF8012300E00023184627
:201DC0001037BD4680BD00BF0020024080B483B000AF00237B60234BDB6803F01003002B65
:201DE00009D0214BDB6943F002031F4AD3617B6843F010037B601B4BDB6803F00403002BB3
:201E000009D0194BDB6943F00103174AD3617B6843F004037B60134BDB6903F00103002BB9
:201E20000BD0114BDB6943F004030F4AD3610D4BDB690C4A23F00103D3617B6840F20112FB
:201E4000934206D1074BDB69064A23F00103D36102E0044A7B68D36000BF0C37BD4680BC1E
:201E6000704700BF00200240E827002080B584B000AF786039600123FB730023BB602F4B88
:201E80001B7E012B01D1022353E02C4B01221A767B681B68022B16D14CF25030FFF750FFAC
:201EA0000346002B41D1012000F04CF84CF25030FFF746FF0346FB73214B1B69204A23F02A
:201EC0000403136131E04CF25030FFF739FF0346002B2AD13B684FF0FF321A607B689B68A8
:201EE000BB6019E0B86800F049F84CF25030FFF727FF0346FB73124B1B69114A23F0020398
:201F00001361FB7B002B03D03B68BA681A600CE0BB6803F50063BB607B68DB68DA027B6830
:201F20009B681344BA689A42DCD3044B00221A76FB7B18461037BD4680BD00BFE827002050
:201F40000020024080B483B000AF7860094B0022DA61094B1B69084A43F004031361064B57
:201F60001B69054A43F04003136100BF0C37BD4680BC7047E82700200020024080B483B0B4
:201F800000AF78600B4B0022DA610B4B1B690A4A43F002031361084A7B685361064B1B696F
:201FA000054A43F04003136100BF0C37BD4680BC704700BFE82700200020024080B584B037
:201FC00000AF78607B68002B01D1012336E07B681B684CF6CC421A607B681B6845F25552EC
:201FE0001A607B681B687A6852685A607B681B687A6892689A60FEF71DFCF86011E0FEF723
:2020000019FC0246FB68D31A41F23C32934208D97B681B68DB6803F00303002B01D00323F8
:202020000CE07B681B68DB6803F00303002BE6D17B681B684AF6AA221A600023184610377C
:20204000BD4680BD80B483B000AF78607B681B684AF6AA221A60002318460C37BD4680BC63
:20206000704780B582B000AF78607B68002B01D1012342E07B6893F84130DBB2002B06D127
:202080007B68002283F840207868FDF745FC7B68242283F841207B681B68DA687B681B6838
:2020A00022F40052DA60786800F072F97B681B681A697B681B6822F490421A617B681B682B
:2020C0005A697B681B6822F02A025A617B681B68DA687B681B6842F40052DA607B68002209
:2020E0005A647B68202283F841207B68202283F842207B6800225A63002318460837BD469A
:2021000080BD80B58AB002AFF860B9603B601346FB8000237B61FB6893F84130DBB2202B4C
:2021200075D1BB68002B02D0FB88002B01D101236EE0FB6800225A64FB68212283F8412082
:20214000FEF778FB7861FB68FA889A84FB68FA88DA84FB689B68B3F5805F08D1FB681B694B
:20216000002B04D10023FB61BB68BB6103E0BB68FB610023BB612EE03B6800937B690022B6
:202180008021F86800F048F80346002B05D0FB68202283F8412003233AE0FB69002B0BD199
:2021A000BB691B881A46FB681B68C2F308025A60BB690233BB6107E0FB691A78FB681B6861
:2021C0005A60FB690133FB61FB68DB8C9BB2013B9AB2FB68DA84FB68DB8C9BB2002BCBD113
:2021E0003B6800937B6900224021F86800F014F80346002B05D0FB68202283F841200323F6
:2022000006E0FB68202283F84120002300E0022318462037BD4680BD80B586B000AFF860C8
:20222000B9603B601346FB713BE03B6AB3F1FF3F37D0FEF7FFFA02463B68D31A3A6A9A4236
:2022400002D33B6A002B01D103233AE0FB681B68DB6803F00403002B23D0BB68802B20D0C8
:20226000BB68402B1DD0FB681B681B6803F00803082B16D100237B61FB681B681B687B611E
:20228000FB681B685B687B617B69F86800F01DF8FB6808225A64FB68002283F840200123A1
:2022A0000FE0FB681B681A68BB681340BA689A420CBF01230023DBB21A46FB799A42B4D080
:2022C000002318461837BD4680BD80B495B000AF78607B681B680C337B637B6B53E8003F0B
:2022E0003B633B6B23F49073FB647B681B680C33FA6C3A64FB63F96B3A6C41E80023BB63A6
:20230000BB6B002BE5D17B681B6814333B623B6A53E8003FFB61FB6923F00103BB647B6874
:202320001B681433BA6CFA62BB62B96AFA6A41E800237B627B6A002BE5D17B681B6B012B29
:2023400019D17B681B680C33FB60FB6853E8003FBB60BB6823F010037B647B681B680C33CE
:202360007A6CBA617B617969BA6941E800233B613B69002BE5D17B68202283F842207B6829
:2023800000221A6300BF5437BD4680BC7047000080B584B000AF78607B681B681B6923F46D
:2023A00040517B68DA687B681B680A431A617B689A687B681B691A437B685B691343BB6078
:2023C0007B681B68DB6823F4B05323F00C037A681268B9680B43D3607B681B685B6923F4D9
:2023E00040717B689A697B681B680A435A617B681B682C4A934203D1FEF728FEF86002E0FE
:20240000FEF710FEF860FA6813469B0013449A001A447B685B689B00B2FBF3F3224AA2FBDF
:2024200003235B091901FA6813469B0013449A001A447B685B689B00B2FBF3F21A4BA3FB7D
:2024400002035B09642000FB03F3D31A1B013233154AA2FB03235B0903F0F0031944FA6805
:2024600013469B0013449A001A447B685B689B00B2FBF3F20C4BA3FB02035B09642000FB69
:2024800003F3D31A1B013233074AA2FB03235B0903F00F027B681B680A449A6000BF1037A8
:2024A000BD4680BD003801401F85EB5180B400AF00BFBD4680BC704780B586B000AF7860F9
:2024C000144A154BD31A7B617B693B61134B1B68002B02D1114B124A1A60104B1A687B6824
:2024E00013443A699A4207D200F05CF903460C221A604FF0FF3309E0084B1B68FB60074B1A
:202500001A687B681344054A1360FB6818461837BD4680BD00600020000400000828002019
:202520001028002080B400AF01231846BD4680BC704780B582B000AF7860396000F032F946
:20254000034616221A604FF0FF3318460837BD4680BD80B582B000AF78604FF0FF317868F5
:20256000FFF7E7FF00BFFDE780B586B000AFF860B9607A6000237B610AE0AFF30080014625
:20258000BB685A1CBA60CAB21A707B6901337B617A697B689A42F0DB7B6818461837BD468E
:2025A00080BD80B586B000AFF860B9607A6000237B6109E0BB685A1CBA601B781846AFF34B
:2025C00000807B6901337B617A697B689A42F1DB7B6818461837BD4680BD80B483B000AF33
:2025E00078604FF0FF3318460C37BD4680BC704780B483B000AF786039603B684FF400523C
:202600005A60002318460C37BD4680BC704780B483B000AF7860012318460C37BD4680BC54
:20262000704780B485B000AFF860B9607A60002318461437BD4680BC70470000FFF736FF93
:202640000B480C490C4A002302E0D458C4500433C4188C42F9D3094A094C002301E013606B
:202660000432A242FBD3F9F739FFFCF79FFE704700200020C020002014390108C02000206D
:202680000C280020FEE7000038B5104B04461D682B6BB3B9182000F0B7F80246286320B965
:2026A00046210B4B0B4800F091F80B490B4BC0E900130B4B002183600B2383810120C2E9D3
:2026C000040100222B6B1C615A6138BD0C200020243801083B3801080E33CDAB34126DE691
:2026E000ECDE0500164B10B51C68236BB3B9182000F08AF80246206320B95221114B1248F0
:2027000000F064F81149124BC0E90013114B002183600B2383810120C2E90401216B0E48B5
:202720000B694C6958430D4A02FB0400A3FB0232013340EB0200C1E9043020F0004010BD4F
:202740000C200020243801083B3801080E33CDAB34126DE6ECDE05002DF451582D7F954CD4
:202760000EB46FF0004110B500249DB01FAB02900690079104910948094953F8042B0591EF
:20278000006802A901931B9400F0A2F8029B1C701DB0BDE8104003B0704700BF0C200020F9
:2027A0000802FFFF014B1868704700BF0C2000200A44914200F1FF3300D1704710B511F8E9
:2027C000014B914203F8014FF9D110BD1FB514461A46094B05461B68D8684CB1074BCDE903
:2027E000013400912B46064900F0FEFA00F036FB044B1C46F3E700BF0C20002093380108E0
:20280000A0380108CE380108024B01461868F9F7F7BE00BF0C2000202DE9F0471F468E685C
:202820008246BE420C4690460B682DD8B1F90C2012F4906F26D06569096905EB4505A3EB57
:20284000010905EBD5757B1C4B446D109D4238BF1D46530527D52946F9F7D2FE064660B376
:202860004A462169FFF7A4FFA38923F4906343F08003A38126614E4426603E466561A5EB1C
:202880000905A560BE4200D93E4632464146206800F0BCFA0020A3689B1BA36023683344B5
:2028A0002360BDE8F0872A4600F0DFFA06460028E0D150462169F9F739FE0C23CAF80030B3
:2028C000A3894FF0FF3043F04003A381E9E700002DE9F04F98468B8907461B060D46144692
:2028E0009DB010D50B6973B94021F9F789FE2860286130B90C233B604FF0FF301DB0BDE88A
:20290000F08F40236B610023099320238DF8293030234FF00109CDF80C80DFF898818DF8C7
